:100000000C9462000C948A000C948A000C948A0070
:100010000C948A000C948A000C948A000C948A0038
:100020000C948A000C948A000C948A000C948A0028
:100030000C948A000C948A000C948A000C948A0018
:100040000C94C9010C948A000C9459030C948A00F6
:100050000C948A000C948A000C948A000C948A00F8
:100060000C948A000C948A000000000024002700F1
:100070002A0000000000250028002B0000000000DE
:1000800023002600290004040404040404040202DA
:100090000202020203030303030301020408102007
:1000A0004080010204081020010204081020000012
:1000B0000007000201000003040600000000000029
:1000C0000000A20411241FBECFEFD8E0DEBFCDBFD9
:1000D00011E0A0E0B1E0EEE1FDE002C005900D927C
:1000E000AE31B107D9F711E0AEE1B1E001C01D9228
:1000F000AE3BB107E1F710E0C4ECD0E004C02297BA
:10010000FE010E948906C23CD107C9F70E94C201C4
:100110000C948D060C9400001F93CF93DF93EC0199
:1001200010E0812F0E947502899399931F5F14300C
:10013000C1F7DF91CF911F9108951F93CF93DF9364
:10014000162FEA014F3F5105C4F49FEF4230590783
:100150001CF4C1E0DFEF0DC04115510541F461E031
:100160000E940C03812F61E00E940C0311C057FF15
:1001700006C061E00E940C0307C0CFEFD0E060E052
:100180000E940C03C150DF4F812FBE010E949302D9
:10019000DF91CF911F910895AC0188E090E06AE073
:1001A00070E00E949D000895AC0187E090E069E056
:1001B00070E00E949D00089581E09FEF0E94D400AE
:1001C0008FEF90E00E94CC0008958CE99FEF0E9491
:1001D000D4008FEF90E00E94CC0008958FEF90E064
:1001E0000E94D40081E09FEF0E94CC0008958FEF21
:1001F00090E00E94D4008CE99FEF0E94CC0008950B
:100200008FEF90E00E94D4008FEF90E00E94CC002E
:100210000895EF92FF920F931F93DF93CF93CDB783
:10022000DEB728970FB6F894DEBF0FBECDBF8E01A4
:100230000F5F1F4FC8010E948C008BEA91E060E0C5
:1002400071E00E94130589E0E82EF12CEC0EFD1EF2
:10025000F801619171918F018BEA91E00E94FC0598
:100260008BEA91E061E171E00E9413050E151F0514
:1002700079F78BEA91E061E171E00E94320550E08C
:1002800089819A81883C91050CF451E040E08B8192
:100290009C81883C91050CF441E0552329F04423CE
:1002A00019F00E94DC0014C030E08D819E81883CF2
:1002B00091050CF431E020E08F819885883C910510
:1002C0000CF421E0332359F0222349F00E94EE0080
:1002D00068EC70E080E090E00E94110214C05523A9
:1002E00011F4442319F00E94E50006C0332311F4F1
:1002F000222339F00E94F70061E070E080E090E096
:10030000EBCF0E9400016AE070E080E090E00E9484
:10031000110228960FB6F894DEBF0FBECDBFCF9165
:10032000DF911F910F91FF90EF90089587E061E0BA
:100330000E94EC0288E061E00E94EC028BE061E048
:100340000E94EC028CE061E00E94EC028BE061E034
:100350000E940C038CE061E00E940C0308958BEA7C
:1003600091E040E855E260E070E00E9496030E9450
:10037000960180E090E00E94D40080E090E00E942E
:10038000CC0008950E943B020E94AF010E94090127
:10039000FDCF1F920F920FB60F9211242F933F9310
:1003A0008F939F93AF93BF938091220190912301EC
:1003B000A0912401B0912501309126010196A11D43
:1003C000B11D232F2D5F2D3720F02D570196A11D34
:1003D000B11D209326018093220190932301A093C5
:1003E0002401B093250180911E0190911F01A091DD
:1003F0002001B09121010196A11DB11D80931E0124
:1004000090931F01A0932001B0932101BF91AF9160
:100410009F918F913F912F910F900FBE0F901F9042
:100420001895EF92FF920F931F937B018C018FB76A
:10043000F894409122015091230160912401709120
:1004400025018FBF2FB7F89480912201909123014D
:10045000A0912401B09125012FBF841B950BA60B01
:10046000B70BE816F9060A071B0760F71F910F91F3
:10047000FF90EF900895789484B5826084BD84B530
:10048000816084BD85B5826085BD85B5816085BD8F
:10049000EEE6F0E0808181608083E1E8F0E0808139
:1004A00082608083808181608083E0E8F0E08081E9
:1004B00081608083E1EBF0E0808184608083E0EB09
:1004C000F0E0808181608083EAE7F0E080818460F1
:1004D000808380818260808380818160808380814D
:1004E000806880831092C10008958F7090911301ED
:1004F0009295990F990F907C982B90937C00809106
:100500007A00806480937A0080917A0086FDFCCF27
:100510002091780040917900942F80E030E0282BE2
:10052000392BC90108951F93CF93DF93182FEB0147
:1005300061E00E94EC02E12FF0E0E255FF4F849170
:10054000833051F480918000806880938000D09344
:100550008900C09388003CC0843051F480918000B1
:10056000806280938000D0938B00C0938A0030C05B
:10057000813039F4209729F184B5806884BDC7BDE6
:1005800027C0823039F42097E1F084B5806284BDC1
:10059000C8BD1EC0863041F48091B0008068809351
:1005A000B000C093B30014C0873041F48091B00014
:1005B00080628093B000C093B4000AC0C038D105F7
:1005C0001CF4812F60E002C0812F61E00E940C03C7
:1005D000DF91CF911F910895282F30E0C9018656F1
:1005E0009F4FFC0194912A573F4FF9018491882332
:1005F00091F0E82FF0E0EE0FFF1FE859FF4FA591B3
:10060000B491662329F48C91909589238C93089555
:100610008C91892B8C930895482F50E0CA01825504
:100620009F4FFC012491CA0186569F4FFC01949173
:100630004A575F4FFA0134913323D1F1222331F12C
:10064000233021F4809180008F7705C0243031F46D
:10065000809180008F7D8093800018C0213019F434
:1006600084B58F7704C0223021F484B58F7D84BD9A
:100670000DC0263021F48091B0008F7705C027305F
:1006800029F48091B0008F7D8093B000E32FF0E0DB
:10069000EE0FFF1FEE58FF4FA591B491662329F48A
:1006A0008C91909589238C9308958C91892B8C93B0
:1006B00008951F920F920FB60F9211242F933F931C
:1006C0004F935F936F937F938F939F93AF93BF935A
:1006D000EF93FF934091C600E091A701F091A8012C
:1006E000CF01019660E870E00E9423069C01809192
:1006F000A9019091AA012817390739F0E95DFE4F49
:1007000040833093A8012093A701FF91EF91BF91FF
:10071000AF919F918F917F916F915F914F913F9199
:100720002F910F900FBE0F901F9018955F926F92B0
:100730007F928F929F92AF92BF92CF92DF92EF9271
:10074000FF920F931F93CF93DF93EC013A014B017C
:10075000413482E458078FE0680780E078070CF0A6
:100760007FC060E874E88EE190E0A40193010E94EC
:1007700058062150304040405040CA01B90122E0A3
:1007800030E040E050E00E94580659016A01A6019D
:100790009501209530954095509594E0220F331F98
:1007A000441F551F9A95D1F760E074E284EF90E002
:1007B0000E945806CA01B9012FEF30E040E050E036
:1007C0000E940406A40193010E945806C9018150A9
:1007D0009F4F181619061CF4522E5A9403C0552424
:1007E0005394521A60E079E08DE390E0A401930104
:1007F0000E9458062150304040405040CA01B90183
:1008000022E030E040E050E00E945806209530950C
:100810004095509583E0220F331F441F551F8A9542
:10082000D1F760E074E284EF90E00E945806CA01BC
:10083000B9012FEF30E040E050E00E940406A4012F
:1008400093010E945806C90181509F4F181619063E
:100850001CF4822F815002C081E0821B851500F5B7
:10086000E885F98581E090E00A8802C0880F991F29
:100870000A94E2F7808360E079E08DE390E0A401E0
:1008800093010E9458062150304040405040CA0118
:10089000B90122E030E040E050E00E94580604C078
:1008A000E885F98510829501EC81FD813083EE8128
:1008B000FF812083EA85FB85208141E050E0CA0169
:1008C0000E8402C0880F991F0A94E2F7282B208318
:1008D000EA85FB852081CA010F8402C0880F991F19
:1008E0000A94E2F7282B2083EA85FB85808108881B
:1008F00002C0440F551F0A94E2F7842B8083DF91D6
:10090000CF911F910F91FF90EF90DF90CF90BF900C
:10091000AF909F908F907F906F905F900895FC01B3
:10092000A085B18521898C9190E0022E02C0959519
:1009300087950A94E2F780FFF6CF0484F585E02DD1
:100940006083089588E191E09093AC018093AB01BE
:1009500087E291E09093AE018093AD0185EC90E049
:100960009093B0018093AF0184EC90E09093B2013A
:100970008093B10180EC90E09093B4018093B30137
:1009800081EC90E09093B6018093B50186EC90E005
:100990009093B8018093B70184E08093B90183E01C
:1009A0008093BA0187E08093BB0185E08093BC010E
:1009B00081E08093BD0108950F931F93CF93DF9340
:1009C0008C01EB0109C02196D801ED91FC910190B9
:1009D000F081E02DC801099568816623A1F7DF91B8
:1009E000CF911F910F910895EF92FF920F931F9354
:1009F000CF93DF938C017B01EA010CC0D7016D918D
:100A00007D01D801ED91FC910190F081E02DC801AC
:100A100009952197209791F7DF91CF911F910F9121
:100A2000FF90EF900895DC01ED91FC910280F3813D
:100A3000E02D099508950F931F938C01DC01ED9132
:100A4000FC910190F081E02D6DE00995D801ED91C8
:100A5000FC910190F081E02DC8016AE009951F9199
:100A60000F9108950F931F938C010E941305C801E5
:100A70000E941B051F910F9108952F923F924F9254
:100A80005F926F927F928F929F92AF92BF92CF921E
:100A9000DF92EF92FF920F931F93DF93CF93CDB727
:100AA000DEB7A0970FB6F894DEBF0FBECDBF1C0116
:100AB0006A017B01411551056105710549F4DC01AD
:100AC000ED91FC910190F081E02D60E3099554C017
:100AD000882499245401422E55246624772401E069
:100AE00010E00C0F1D1F080D191DC701B601A30151
:100AF00092010E943606F80160830894811C911CC3
:100B0000A11CB11CC701B601A30192010E943606C7
:100B1000C901DA016C017D01C114D104E104F104C1
:100B2000F1F681E0E82EF12CEC0EFD1EE80CF91C2C
:100B30003E010894611C711CD501C4010197A109F3
:100B4000B1096C01C818D90814C0F601EE0DFF1DDB
:100B500060816A3010F4605D01C0695CD101ED9183
:100B6000FC910190F081E02DC10109950894E10804
:100B7000F1086E147F0449F7A0960FB6F894DEBF13
:100B80000FBECDBFCF91DF911F910F91FF90EF90DE
:100B9000DF90CF90BF90AF909F908F907F906F909D
:100BA0005F904F903F902F900895EF92FF920F9398
:100BB0001F93CF93DF93EC017A018B0177FF0FC076
:100BC000E881F9810190F081E02D6DE209951095A1
:100BD0000095F094E094E11CF11C011D111DCE0163
:100BE000B801A7012AE00E943D05DF91CF911F9136
:100BF0000F91FF90EF900895AB01662757FD609528
:100C0000762F0E94D5050895629FD001739FF00151
:100C1000829FE00DF11D649FE00DF11D929FF00D8C
:100C2000839FF00D749FF00D659FF00D9927729FC3
:100C3000B00DE11DF91F639FB00DE11DF91FBD014E
:100C4000CF011124089597FB092E07260AD077FDBE
:100C500004D049D006D000201AF4709561957F4FDA
:100C60000895F6F7909581959F4F0895A1E21A2E69
:100C7000AA1BBB1BFD010DC0AA1FBB1FEE1FFF1F40
:100C8000A217B307E407F50720F0A21BB30BE40B90
:100C9000F50B661F771F881F991F1A9469F76095D7
:100CA0007095809590959B01AC01BD01CF01089591
:100CB00097FB092E05260ED057FD04D0D7DF0AD0AA
:100CC000001C38F450954095309521953F4F4F4F7B
:100CD0005F4F0895F6F790958095709561957F4FD9
:100CE0008F4F9F4F0895AA1BBB1B51E107C0AA1F3E
:100CF000BB1FA617B70710F0A61BB70B881F991FBD
:100D00005A95A9F780959095BC01CD010895EE0FF5
:0E0D1000FF1F0590F491E02D0994F894FFCF99
:100D1E0053656E736F722056616C756573203A2041
:0E0D2E0000200001000000008F04DC04F4042B
:00000001FF
